Number_Request,i_Request,Number_Orders,i_orders,i_price,i_side,i_qty,i_symbol,i_ccy,i_Quote_id,i_round_qty,i_trade_type,
3,2017/09/19 14:09:39:449: FIXConnectionData: Sending data on connection {BOAFXQUOTES} [8=FIX.4.3|9=0131|35=R|49=Portware2Orders|56=BOA-FIX|34=24|52=20170919-18:09:39|131=server9201446|146=1|55=EUR/USD|303=103|15=EUR|38=1000000|6215=SP|10=221|],7,2017/09/19 14:14:20:147: FIXConnectionData: Sending data on connection {BOAFXTRADES} [8=FIX.4.3|9=0204|35=D|49=Portware2Trades|56=BOA-FIX|34=148442|52=20170919-18:14:20|55=EUR/USD|21=1|60=20170919-18:14:20|15=EUR|117=070JSDOAE2150F1NMDlcm4Fbt62Qfm4Fbt6klim4Fbt60|11=9201471|44=1.19989|54=1|40=D|38=10000000|10=200|],1.19989,1,10000000,EUR/USD,EUR,070JSDOAE2150F1NMDlcm4Fbt62Qfm4Fbt6klim4Fbt60,10.0,Base
3,2017/09/19 14:09:39:449: FIXConnectionData: Sending data on connection {BOAFXQUOTES} [8=FIX.4.3|9=0131|35=R|49=Portware2Orders|56=BOA-FIX|34=25|52=20170919-18:09:39|131=server9201448|146=1|55=EUR/USD|303=103|15=EUR|38=5000000|6215=SP|10=228|],7,2017/09/19 14:14:53:146: FIXConnectionData: Sending data on connection {BOAFXTRADES} [8=FIX.4.3|9=0203|35=D|49=Portware2Trades|56=BOA-FIX|34=148444|52=20170919-18:14:53|55=EUR/USD|21=1|60=20170919-18:14:53|15=EUR|117=E80HSDOAE2150F1XOVe0y6Fbt6nO3y6Fbt6GC6y6Fbt60|11=9201472|44=1.19977|54=2|40=D|38=1000000|10=077|],1.19977,2,1000000,EUR/USD,EUR,E80HSDOAE2150F1XOVe0y6Fbt6nO3y6Fbt6GC6y6Fbt60,1.0,Base
3,2017/09/19 14:09:39:449: FIXConnectionData: Sending data on connection {BOAFXQUOTES} [8=FIX.4.3|9=0132|35=R|49=Portware2Orders|56=BOA-FIX|34=26|52=20170919-18:09:39|131=server9201450|146=1|55=EUR/USD|303=103|15=EUR|38=10000000|6215=SP|10=011|],7,2017/09/19 14:15:38:523: FIXConnectionData: Sending data on connection {BOAFXTRADES} [8=FIX.4.3|9=0203|35=D|49=Portware2Trades|56=BOA-FIX|34=148446|52=20170919-18:15:38|55=EUR/USD|21=1|60=20170919-18:15:38|15=EUR|117=A90HSDOAE2150F250JhD6AFbt60JG6AFbt6m3L6AFbt60|11=9201473|44=1.19993|54=2|40=D|38=1000000|10=114|],1.19993,2,1000000,EUR/USD,EUR,A90HSDOAE2150F250JhD6AFbt60JG6AFbt6m3L6AFbt60,1.0,Base
3,,7,2017/09/19 14:16:28:562: FIXConnectionData: Sending data on connection {BOAFXTRADES} [8=FIX.4.3|9=0203|35=D|49=Portware2Trades|56=BOA-FIX|34=148448|52=20170919-18:16:28|55=EUR/USD|21=1|60=20170919-18:16:28|15=USD|117=qA0HSDOAE2150F2INAeFWDFbt6fUIWDFbt6O9LWDFbt60|11=9201474|44=1.20006|54=1|40=D|38=1200060|10=092|],1.20006,1,1200060,EUR/USD,USD,qA0HSDOAE2150F2INAeFWDFbt6fUIWDFbt6O9LWDFbt60,1.2,Trem
3,,7,2017/09/19 14:17:15:698: FIXConnectionData: Sending data on connection {BOAFXTRADES} [8=FIX.4.3|9=0203|35=D|49=Portware2Trades|56=BOA-FIX|34=148450|52=20170919-18:17:15|55=EUR/USD|21=1|60=20170919-18:17:15|15=USD|117=EC0HSDOAE2150F2TMocCjGFbt6qrEjGFbt6kKHjGFbt60|11=9201475|44=1.19996|54=2|40=D|38=1199960|10=030|],1.19996,2,1199960,EUR/USD,USD,EC0HSDOAE2150F2TMocCjGFbt6qrEjGFbt6kKHjGFbt60,1.2,Trem
3,,7,2017/09/19 14:21:44:055: FIXConnectionData: Sending data on connection {BOAFXTRADES} [8=FIX.4.3|9=0203|35=D|49=Portware2Trades|56=BOA-FIX|34=148459|52=20170919-18:21:44|55=EUR/USD|21=1|60=20170919-18:21:44|15=EUR|117=KH0HSDOAE2150F452ojnuYFbt6xvpuYFbt6CTsuYFbt60|11=9201476|44=1.19982|54=1|40=D|38=1000000|10=152|],1.19982,1,1000000,EUR/USD,EUR,KH0HSDOAE2150F452ojnuYFbt6xvpuYFbt6CTsuYFbt60,1.0,Base
3,,7,2017/09/19 14:22:32:424: FIXConnectionData: Sending data on connection {BOAFXTRADES} [8=FIX.4.3|9=0204|35=D|49=Portware2Trades|56=BOA-FIX|34=148461|52=20170919-18:22:32|55=EUR/USD|21=1|60=20170919-18:22:32|15=EUR|117=xE0JSDOAE2150F4FMAoIBcFbt6FALBcFbt6hvNBcFbt60|11=9201477|44=1.19996|54=1|40=D|38=10000000|10=234|],1.19996,1,10000000,EUR/USD,EUR,xE0JSDOAE2150F4FMAoIBcFbt6FALBcFbt6hvNBcFbt60,10.0,Base
